{
  "contractName": "Poker",
  "abi": [
    {
      "inputs": [
        {
          "internalType": "uint256",
          "name": "_minBet",
          "type": "uint256"
        }
      ],
      "payable": false,
      "stateMutability": "nonpayable",
      "type": "constructor"
    },
    {
      "anonymous": false,
      "inputs": [
        {
          "indexed": true,
          "internalType": "address",
          "name": "_winner",
          "type": "address"
        },
        {
          "indexed": false,
          "internalType": "uint256",
          "name": "_amount",
          "type": "uint256"
        }
      ],
      "name": "FinishedGame",
      "type": "event"
    },
    {
      "constant": false,
      "inputs": [
        {
          "internalType": "string",
          "name": "name",
          "type": "string"
        }
      ],
      "name": "register",
      "outputs": [
        {
          "components": [
            {
              "internalType": "string",
              "name": "Name",
              "type": "string"
            },
            {
              "internalType": "uint256",
              "name": "TotalAmount",
              "type": "uint256"
            },
            {
              "internalType": "bool",
              "name": "exists",
              "type": "bool"
            },
            {
              "internalType": "bool",
              "name": "approved",
              "type": "bool"
            }
          ],
          "internalType": "struct Poker.Player",
          "name": "",
          "type": "tuple"
        }
      ],
      "payable": true,
      "stateMutability": "payable",
      "type": "function"
    },
    {
      "constant": true,
      "inputs": [
        {
          "internalType": "address",
          "name": "_playerAddress",
          "type": "address"
        }
      ],
      "name": "getPlayerData",
      "outputs": [
        {
          "components": [
            {
              "internalType": "string",
              "name": "Name",
              "type": "string"
            },
            {
              "internalType": "uint256",
              "name": "TotalAmount",
              "type": "uint256"
            },
            {
              "internalType": "bool",
              "name": "exists",
              "type": "bool"
            },
            {
              "internalType": "bool",
              "name": "approved",
              "type": "bool"
            }
          ],
          "internalType": "struct Poker.Player",
          "name": "",
          "type": "tuple"
        }
      ],
      "payable": false,
      "stateMutability": "view",
      "type": "function"
    },
    {
      "constant": true,
      "inputs": [],
      "name": "getMyData",
      "outputs": [
        {
          "components": [
            {
              "internalType": "string",
              "name": "Name",
              "type": "string"
            },
            {
              "internalType": "uint256",
              "name": "TotalAmount",
              "type": "uint256"
            },
            {
              "internalType": "bool",
              "name": "exists",
              "type": "bool"
            },
            {
              "internalType": "bool",
              "name": "approved",
              "type": "bool"
            }
          ],
          "internalType": "struct Poker.Player",
          "name": "",
          "type": "tuple"
        }
      ],
      "payable": false,
      "stateMutability": "view",
      "type": "function"
    },
    {
      "constant": false,
      "inputs": [
        {
          "internalType": "address payable",
          "name": "_playerAddress",
          "type": "address"
        }
      ],
      "name": "win",
      "outputs": [
        {
          "components": [
            {
              "internalType": "string",
              "name": "Name",
              "type": "string"
            },
            {
              "internalType": "uint256",
              "name": "TotalAmount",
              "type": "uint256"
            },
            {
              "internalType": "bool",
              "name": "exists",
              "type": "bool"
            },
            {
              "internalType": "bool",
              "name": "approved",
              "type": "bool"
            }
          ],
          "internalType": "struct Poker.Player",
          "name": "",
          "type": "tuple"
        }
      ],
      "payable": false,
      "stateMutability": "nonpayable",
      "type": "function"
    },
    {
      "constant": false,
      "inputs": [],
      "name": "approve",
      "outputs": [],
      "payable": true,
      "stateMutability": "payable",
      "type": "function"
    },
    {
      "constant": false,
      "inputs": [],
      "name": "addBet",
      "outputs": [
        {
          "internalType": "uint256",
          "name": "",
          "type": "uint256"
        }
      ],
      "payable": true,
      "stateMutability": "payable",
      "type": "function"
    },
    {
      "constant": true,
      "inputs": [],
      "name": "getBalance",
      "outputs": [
        {
          "internalType": "uint256",
          "name": "",
          "type": "uint256"
        }
      ],
      "payable": false,
      "stateMutability": "view",
      "type": "function"
    },
    {
      "constant": true,
      "inputs": [],
      "name": "getTotalPlayers",
      "outputs": [
        {
          "internalType": "uint256",
          "name": "",
          "type": "uint256"
        }
      ],
      "payable": false,
      "stateMutability": "view",
      "type": "function"
    }
  ],
  "bytecode": "0x608060405260008055600060015534801561001957600080fd5b506040516112c73803806112c7833981810160405261003b919081019061005d565b80600481905550506100a7565b60008151905061005781610090565b92915050565b60006020828403121561006f57600080fd5b600061007d84828501610048565b91505092915050565b6000819050919050565b61009981610086565b81146100a457600080fd5b50565b611211806100b66000396000f3fe60806040526004361061007b5760003560e01c8063a34cc8451161004e578063a34cc8451461011d578063d09a13be1461015a578063d9c8a38b14610178578063f2c298be146101a35761007b565b806312065fe01461008057806312424e3f146100ab5780632aa531d9146100b55780634529cae7146100f2575b600080fd5b34801561008c57600080fd5b506100956101d3565b6040516100a29190611052565b60405180910390f35b6100b36101db565b005b3480156100c157600080fd5b506100dc60048036036100d79190810190610cce565b61034d565b6040516100e99190611030565b60405180910390f35b3480156100fe57600080fd5b50610107610525565b6040516101149190611052565b60405180910390f35b34801561012957600080fd5b50610144600480360361013f9190810190610cf7565b61052f565b6040516101519190611030565b60405180910390f35b610162610790565b60405161016f9190611052565b60405180910390f35b34801561018457600080fd5b5061018d6107d7565b60405161019a9190611030565b60405180910390f35b6101bd60048036036101b89190810190610d20565b6109ad565b6040516101ca9190611030565b60405180910390f35b600047905090565b600360003373ffffffffffffffffffffffffffffffffffffffff1673ffffffffffffffffffffffffffffffffffffffff16815260200190815260200160002060020160019054906101000a900460ff161561026b576040517f08c379a000000000000000000000000000000000000000000000000000000000815260040161026290610fd0565b60405180910390fd5b6001600360003373ffffffffffffffffffffffffffffffffffffffff1673ffffffffffffffffffffffffffffffffffffffff16815260200190815260200160002060020160016101000a81548160ff021916908315150217905550600080815460010191905081905550600154600054141561034b57600260009054906101000a900473ffffffffffffffffffffffffffffffffffffffff1673ffffffffffffffffffffffffffffffffffffffff166108fc479081150290604051600060405180830381858888f19350505050158015610349573d6000803e3d6000fd5b505b565b610355610b7f565b81600360008273ffffffffffffffffffffffffffffffffffffffff1673ffffffffffffffffffffffffffffffffffffffff16815260200190815260200160002060020160009054906101000a900460ff166103e5576040517f08c379a00000000000000000000000000000000000000000000000000000000081526004016103dc90610f90565b60405180910390fd5b6103ed610b7f565b600360008573ffffffffffffffffffffffffffffffffffffffff1673ffffffffffffffffffffffffffffffffffffffff168152602001908152602001600020604051806080016040529081600082018054600181600116156101000203166002900480601f0160208091040260200160405190810160405280929190818152602001828054600181600116156101000203166002900480156104d05780601f106104a5576101008083540402835291602001916104d0565b820191906000526020600020905b8154815290600101906020018083116104b357829003601f168201915b50505050508152602001600182015481526020016002820160009054906101000a900460ff161515151581526020016002820160019054906101000a900460ff16151515158152505090508092505050919050565b6000600154905090565b610537610b7f565b81600360008273ffffffffffffffffffffffffffffffffffffffff1673ffffffffffffffffffffffffffffffffffffffff16815260200190815260200160002060020160009054906101000a900460ff166105c7576040517f08c379a00000000000000000000000000000000000000000000000000000000081526004016105be90610f90565b60405180910390fd5b6000600360008573ffffffffffffffffffffffffffffffffffffffff1673ffffffffffffffffffffffffffffffffffffffff168152602001908152602001600020905083600260006101000a81548173ffffffffffffffffffffffffffffffffffffffff021916908373ffffffffffffffffffffffffffffffffffffffff1602179055503373ffffffffffffffffffffffffffffffffffffffff167f1950dc559ddf46c1e28d955722f71dbed152baf2b4110528296d40fbd4eb31ef476040516106919190611052565b60405180910390a280604051806080016040529081600082018054600181600116156101000203166002900480601f01602080910402602001604051908101604052809291908181526020018280546001816001161561010002031660029004801561073e5780601f106107135761010080835404028352916020019161073e565b820191906000526020600020905b81548152906001019060200180831161072157829003601f168201915b50505050508152602001600182015481526020016002820160009054906101000a900460ff161515151581526020016002820160019054906101000a900460ff16151515158152505092505050919050565b60008034116107d4576040517f08c379a00000000000000000000000000000000000000000000000000000000081526004016107cb90611010565b60405180910390fd5b90565b6107df610b7f565b33600360008273ffffffffffffffffffffffffffffffffffffffff1673ffffffffffffffffffffffffffffffffffffffff16815260200190815260200160002060020160009054906101000a900460ff1661086f576040517f08c379a000000000000000000000000000000000000000000000000000000000815260040161086690610f90565b60405180910390fd5b610877610b7f565b600360003373ffffffffffffffffffffffffffffffffffffffff1673ffffffffffffffffffffffffffffffffffffffff168152602001908152602001600020604051806080016040529081600082018054600181600116156101000203166002900480601f01602080910402602001604051908101604052809291908181526020018280546001816001161561010002031660029004801561095a5780601f1061092f5761010080835404028352916020019161095a565b820191906000526020600020905b81548152906001019060200180831161093d57829003601f168201915b50505050508152602001600182015481526020016002820160009054906101000a900460ff161515151581526020016002820160019054906101000a900460ff1615151515815250509050809250505090565b6109b5610b7f565b6004543410156109fa576040517f08c379a00000000000000000000000000000000000000000000000000000000081526004016109f190610ff0565b60405180910390fd5b600360003373ffffffffffffffffffffffffffffffffffffffff1673ffffffffffffffffffffffffffffffffffffffff16815260200190815260200160002060020160009054906101000a900460ff1615610a8a576040517f08c379a0000000000000000000000000000000000000000000000000000000008152600401610a8190610fb0565b60405180910390fd5b610a92610b7f565b60405180608001604052808481526020016000815260200160011515815260200160001515815250905080600360003373ffffffffffffffffffffffffffffffffffffffff1673ffffffffffffffffffffffffffffffffffffffff1681526020019081526020016000206000820151816000019080519060200190610b18929190610bab565b506020820151816001015560408201518160020160006101000a81548160ff02191690831515021790555060608201518160020160016101000a81548160ff0219169083151502179055509050506001600081546001019190508190555080915050919050565b604051806080016040528060608152602001600081526020016000151581526020016000151581525090565b828054600181600116156101000203166002900490600052602060002090601f016020900481019282601f10610bec57805160ff1916838001178555610c1a565b82800160010185558215610c1a579182015b82811115610c19578251825591602001919060010190610bfe565b5b509050610c279190610c2b565b5090565b610c4d91905b80821115610c49576000816000905550600101610c31565b5090565b90565b600081359050610c5f816111a0565b92915050565b600081359050610c74816111b7565b92915050565b600082601f830112610c8b57600080fd5b8135610c9e610c998261109a565b61106d565b91508082526020830160208301858383011115610cba57600080fd5b610cc583828461114d565b50505092915050565b600060208284031215610ce057600080fd5b6000610cee84828501610c50565b91505092915050565b600060208284031215610d0957600080fd5b6000610d1784828501610c65565b91505092915050565b600060208284031215610d3257600080fd5b600082013567ffffffffffffffff811115610d4c57600080fd5b610d5884828501610c7a565b91505092915050565b610d6a81611117565b82525050565b6000610d7b826110c6565b610d8581856110d1565b9350610d9581856020860161115c565b610d9e8161118f565b840191505092915050565b6000610db66019836110e2565b91507f54686520706c6179657220646f6573206e6f74206578697374000000000000006000830152602082019050919050565b6000610df66018836110e2565b91507f54686520506c6179657220616c726561647920657869737400000000000000006000830152602082019050919050565b6000610e36601d836110e2565b91507f596f7520616c726561647920617070726f766564207468652067616d650000006000830152602082019050919050565b6000610e766029836110e2565b91507f596f75206e65656420746f2061646420746865206c657320616d6f6e7574206f60008301527f66207468652062657400000000000000000000000000000000000000000000006020830152604082019050919050565b6000610edc600e836110e2565b91507f596f752063616e742062657420300000000000000000000000000000000000006000830152602082019050919050565b60006080830160008301518482036000860152610f2c8282610d70565b9150506020830151610f416020860182610f72565b506040830151610f546040860182610d61565b506060830151610f676060860182610d61565b508091505092915050565b610f7b81611143565b82525050565b610f8a81611143565b82525050565b60006020820190508181036000830152610fa981610da9565b9050919050565b60006020820190508181036000830152610fc981610de9565b9050919050565b60006020820190508181036000830152610fe981610e29565b9050919050565b6000602082019050818103600083015261100981610e69565b9050919050565b6000602082019050818103600083015261102981610ecf565b9050919050565b6000602082019050818103600083015261104a8184610f0f565b905092915050565b60006020820190506110676000830184610f81565b92915050565b6000604051905081810181811067ffffffffffffffff8211171561109057600080fd5b8060405250919050565b600067ffffffffffffffff8211156110b157600080fd5b601f19601f8301169050602081019050919050565b600081519050919050565b600082825260208201905092915050565b600082825260208201905092915050565b60006110fe82611123565b9050919050565b600061111082611123565b9050919050565b60008115159050919050565b600073ffffffffffffffffffffffffffffffffffffffff82169050919050565b6000819050919050565b82818337600083830152505050565b60005b8381101561117a57808201518184015260208101905061115f565b83811115611189576000848401525b50505050565b6000601f19601f8301169050919050565b6111a9816110f3565b81146111b457600080fd5b50565b6111c081611105565b81146111cb57600080fd5b5056fea365627a7a723158205d2c7b991c67c66da4e46461385d4f88e969c10f453888e93cd73774f8df42486c6578706572696d656e74616cf564736f6c63430005100040",
  "source": "pragma solidity 0.5.16;\npragma experimental ABIEncoderV2;\n\ncontract Poker {\n\n  event FinishedGame(address indexed _winner, uint _amount);\n\n  uint countApproved = 0;\n  uint countOfPlayers = 0;\n  struct Player {\n    string Name;    \n    uint TotalAmount;\n    bool exists;\n    bool approved;\n  }\n  address payable winner;\n  mapping(address => Player) players;\n  uint minBet;\n\n  constructor(uint _minBet) public {\n    minBet = _minBet;\n  }\n\n  function register(string memory name) public payable returns(Player memory)\n  {\n    require(msg.value >= minBet, \"You need to add the les amonut of the bet\");\n    require(!players[msg.sender].exists, \"The Player already exist\");\n    Player memory player = Player(name, 0, true, false);\n    players[msg.sender] = player;\n    ++countOfPlayers;\n    return player;\n  } \n\n  function getPlayerData(address _playerAddress) public view existPlayer(_playerAddress) returns (Player memory)\n  {\n    Player memory player = players[_playerAddress];\n    return player;\n  }\n\n  function getMyData() public view existPlayer(msg.sender) returns (Player memory)\n  {\n    Player memory player = players[msg.sender];\n    return player;\n  }\n\n  function win(address payable _playerAddress) public existPlayer(_playerAddress) returns (Player memory)\n  {\n    Player storage player = players[_playerAddress];\n    winner = _playerAddress;\n    emit FinishedGame(msg.sender,  address(this).balance);\n    return player;\n  }\n  function approve() public payable\n  {\n    require(!players[msg.sender].approved, \"You already approved the game\");\n    players[msg.sender].approved = true;\n    ++countApproved;\n    if (countApproved == countOfPlayers)\n    {\n      winner.transfer(address(this).balance);\n      // selfdestruct(); send the money to the bank\n    }\n  }\n\n  function addBet() public payable returns(uint)\n  {\n    require(msg.value > 0, \"You cant bet 0\");\n  }\n\n  function getBalance() public view returns(uint)\n  {\n    return address(this).balance;\n  }\n\n  function getTotalPlayers() public view returns(uint)\n  {\n    return countOfPlayers;\n  }\n\n\n  modifier existPlayer(address _playerAddress) {\n    require(players[_playerAddress].exists, \"The player does not exist\");\n    _;\n  }\n}\n",
  "sourcePath": "C:/Users/germa/source/repos/blockchain/poker/contracts/Poker.sol",
  "compiler": {
    "name": "solc",
    "version": "0.5.16+commit.9c3226ce.Emscripten.clang"
  },
  "schemaVersion": "3.4.1",
  "updatedAt": "2021-05-27T03:34:54.841Z",
  "networkType": "ethereum",
  "devdoc": {
    "methods": {}
  },
  "userdoc": {
    "methods": {}
  }
}